:020000040000FA
:040000000128F72FAD
:100E86003B009B1708003B009B130800163021000F
:100E96009700080072302100990098010800702719
:100EA6004D274927822758270800083023009F002E
:100EB60090309D0024309E0067309B009C01080006
:100EC6002300990120009112911E672F23009D1C7B
:100ED6006E2F9D139D1719080800303022008C00D4
:100EE600023021008C0023008C0124008C0121009B
:100EF600951325008C01013022009D0008003B005F
:100F06009C019D0171309E009F01A00192019101FB
:100F16007A30940012309300F43096002330950016
:100F2600F4309800233097009A01990150309B00C5
:100F36000800522722000C160C116327F7007708C9
:100F4600FA0002307A06031DA02FF901B22F7908A4
:100F56006F3E86008701033001060319C22F6327FF
:100F6600F7007908703E8600870177088100013016
:100F7600F7007708F90707307902031CAA2F3030EB
:100F86007006031DE92F31307106031DE92F32303B
:100F96007206031DE92F30307306031DD42F432735
:100FA600A02F31307306031DA02F432722000C12F9
:100FB6000B30F8002630F7005E30890BE02FF70B78
:100FC600E02FF80BE02F22000C16A02F3030700611
:100FD600031DA02F31307106031DA02F313072067C
:100FE600031DA02F4627A02FF001F101F201F30106
:0A0FF600F401F501F60120009C2F24
:020000040001F9
:04000E00A4F9FFDC76
:00000001FF
